:10000000C0700020851200005356000071120000DD
:100010007112000071120000711200000000000057
:10002000000000000000000000000000E1120000DD
:100030007112000000000000711200007112000037
:1000400069140000691400006914000069140000BC
:1000500069140000691400006914000069140000AC
:10006000691400006914000069140000691400009C
:10007000691400006914000069140000691400008C
:10008000691400006914000069140000691400007C
:10009000691400006914000069140000691400006C
:1000A000691400006914000069140000691400005C
:1000B000691400006914000069140000691400004C
:1000C000691400006914000069140000691400003C
:1000D000691400006914000069140000691400002C
:1000E000691400006914000069140000691400001C
:1000F000691400006914000069140000691400000C
:1001000053B94AB9002908BF00281CBF4FF0FF317E
:100110004FF0FF3000F00CB8ADF1080C6DE904CEE3
:1001200000F008F8DDF804E0DDE9022304B07047D0
:10013000704700BF2DE9F0478C468E46089E154655
:1001400004461946002B40F0D080724547D9B2FAD8
:1001500082F74FB1C7F120030EFA07FC20FA03F330
:10016000BD4043EA0C0CBC404FEA154EA8B2BCFBA4
:10017000FEF8230C0EFB18CC08FB00F943EA0C43F5
:10018000994528D9EB1808F1FF3204D2994502D9D4
:10019000A8F102022B44A3EB0903A4B2B3FBFEFCBB
:1001A0000EFB1C330CFB00F044EA0344A04214D9BC
:1001B0002C190CF1FF3304D2A04202D9ACF1020396
:1001C0002C44241A43EA02401EB1FC400023346050
:1001D0007360BDE8F0874246DDE76346F1E7002A39
:1001E00079D0B2FA82F3002B3FD01946C1F1200337
:1001F00002FA01F52EFA03F20EFA01FE20FA03F3D9
:1002000043EA0E034FEA154E00FA01F4B2FBFEFC7E
:10021000AFB20EFB1C201A0C0CFB07F842EA00429E
:1002200090455AD9AA180CF1FF3004D2904502D952
:10023000ACF102002A44A2EB08029BB2B2FBFEFC26
:100240000EFB1C220CFB07F743EA02439F4246D9F0
:10025000EB180CF1FF3204D29F4202D9ACF102023A
:100260002B44DB1B42EA004202E0AEEB0203012218
:100270004FEA154EAFB2B3FBFEFC200C0EFB1C3355
:100280000CFB07F840EA034398452AD9EB180CF118
:10029000FF3004D2984502D9ACF102002B44A3EB05
:1002A0000803A4B2B3FBFEFC0EFB1C330CFB07F7E8
:1002B00044EA0344A74216D92C190CF1FF3304D2A7
:1002C000A74202D9ACF102032C44E41B43EA0040EC
:1002D0000F46114678E71F2188E76046ABE7624684
:1002E000BFE76046DBE76346EFE7734506D916B91B
:1002F000002108466DE7C6E9000EF9E7B3FA83F777
:1003000087B9734501D3824207D8841A6EEB030381
:1003100001209C461EB900215BE73846FAE7C6E992
:10032000004CF8E7C7F1200CBB4022FA0CF51D4346
:1003300020FA0CF12EFA0CF30EFA07FE41EA0E0138
:100340004FEA154900FA07F4B3FBF9F81FFA85FEE6
:1003500009FB18300B0C08FB0EFA43EA00439A45E0
:1003600002FA07F240D9EB1808F1FF3004D29A459F
:1003700002D9A8F102002B44A3EB0A0389B2B3FB14
:10038000F9F809FB183308FB0EFE41EA03418E45DC
:100390002CD9691808F1FF3304D28E4502D9A8F18F
:1003A0000203294443EA0040A0FB0298A1EB0E019E
:1003B0004145CE46434602D306D14C4504D2B9EB63
:1003C000020E68EB05030138002EA4D0B4EB0E0238
:1003D00061EB030101FA0CFC22FA07F34CEA030378
:1003E000F940C6E9003196E74046C5E74346D9E7FC
:1003F00030B587B004F01EFE00F086F8254849218C
:1004000004F0F4FE00F078F803A800F069FD224B38
:100410001B68834204D02148452104F0E7FEFEE733
:10042000059A1F48492104F0E1FE03991D484B7DC0
:100430000A7DC98A0091492104F0D8FE1A48492151
:1004400004F0D4FE9DF8100002A900F033F8044631
:1004500000B1FEE7029A059B144D1344039A1289DA
:1004600013442B6002F006FA00F04CFD00F026FF6A
:100470002B681B6883F3088884F31488BFF36F8F9D
:10048000BFF36F8F2B685B6898470948452104F0DC
:10049000ADFEFEE77A870000C40100209E870000C1
:1004A000C1870000F08700000E880000C001002016
:1004B0002D88000008B5024638B1054800234521C3
:1004C00004F094FE6FF0150008BD0860FCE700BF63
:1004D0005088000021B1012906D06FF01500704747
:1004E000044B53F830007047024B03EBC0035868CD
:1004F000704700BF9884000002484FF4C05104F0D8
:1005000041BA00BF44270020094B0A4AC3F800261D
:10051000C3F80426C3F80826C3F80C26C3F810262F
:10052000C3F81426C3F81826C3F81C26704700BF6A
:10053000000001403546526E014B1B68184700BF52
:100540000800002030B5044685B00D461022002179
:10055000684607F0B3FD02238DF802302A46044BAB
:1005600001932146684604F001FC05B030BD00BF90
:10057000390500002DE9F047058B0446280717468A
:100580000CD501290CBF45F0100545F02005258349
:1005900087F31188BFF36F8FBDE8F087022905F05C
:1005A000070540F09480204604F054FD052864D8E7
:1005B00001A353F820F000BF91050000CF06000012
:1005C0007B0600003D06000057060000690600009B
:1005D00001F007035A1F012A1FD8002221F007014A
:1005E000062BD4F8008089B2C4E9002209D1434621
:1005F00003E0628B013262831B68002BF9D141F06A
:1006000002012183204604F025FD4FF00009002857
:100610006DD041F02001218369E0042B0AD121F043
:10062000070189B22183204604F014FD10B141F086
:10063000200121834FF00008C14658E02369D3F818
:100640000090238B23F0070343F0060323834FF02E
:10065000000846464BE02369D3F80490238B23F02F
:10066000070343F00403F1E72369D3F80890238BD1
:1006700023F0070343F00503E8E74FF00008C14605
:10068000E7E7012243F00803238387F31188BFF3D0
:100690006F8F002A3BD1B8F1000F4AD1B9F1000F9A
:1006A00002D02D492046C847EFF31187202383F35A
:1006B0001288BFF36F8F238B23F008039BB2238331
:1006C000D9063FD523F01002228303F0070566699F
:1006D000218B002EBFF67CAF0023D4F8008021F0E0
:1006E0000701C4E9003341F0010121839946238BBE
:1006F00003F0070AAA4502D0A268002AC1D1B8F1C6
:10070000000F02D1B9F1000FDAD00022BAE7A168D8
:100710000029C0D00D680029BDD04F68334652462D
:100720002046B8471DB12B6829461D46F3E72B46E6
:10073000FAE74146334652462046D8F8008004F096
:10074000B5FCA8E79A067FF523AF23F020022283A9
:1007500003F0070527E700BFD9500000014B0360F5
:1007600000207047B084000070B5104B1C680D4627
:10077000B4B10F4B196800238B4202DB6FF001000C
:1007800070BD224612F8106B864202D00133144627
:10079000F2E7E06806F073F828B12C600020EFE77C
:1007A0006FF00C00ECE76FF01200E9E70C0000209E
:1007B000B08400002DE9F04FD7B0DFF870A1DDF86C
:1007C00088C1DAF80050CDF80CC0DDF884C1CDF84E
:1007D00008C00DF1380BDDF880C1CDF804B0CDF8BC
:1007E00000C0639C07468846164604F067FD28B1A2
:1007F000DAF80050284657B0BDE8F08F6CB1A1463A
:100800005A4616AC134603CBA342C9F80000C9F8F8
:1008100004101A4609F10809F4D100230093324666
:100820004FF6FF73414608A804F08DFD059000289F
:10083000DED1314638460D9C04F02EFEA042D7D3BF
:100840004FF0FF3416E03F88202FD1D1D9F80010A7
:100850003B4616AA304604F0E4FC0028C8D13A46CC
:1008600016A9584604F016FE314B1B688342BFD1CF
:100870000123059306AF0DF11C090DF11A033A4649
:10088000494608A804F0ADFD0028B1DB48D1D9F8ED
:10089000001008A804F0F0FDBDF81A8040B9254A00
:1008A0004FF6FF7132F8023B8B42A1D04345F9D19C
:1008B000B8F1100FC7D0B8F1200F13D0B8F1010F65
:1008C000D8D13B88202B93D8D9F8001016AA3046EF
:1008D00004F0A7FC00288BD1397816A800F02EF878
:1008E0000446C7E7002CABDB134B1B689C42A7DA1E
:1008F0003B88B3F5807F7FF47BAFD9F8001016AA50
:10090000304604F08EFC00287FF472AFE4B200940D
:100910003B8816AA4146584600F0E2F805468FE7A4
:10092000059B012B7FF464AF64E700BF1400002037
:10093000C40100204C870000A08400002DE9F04194
:100940002029A2B080460D4605D94FF0FF3420463D
:1009500022B0BDE8F081124B124E1F680024BC4249
:10096000F3DA08A806F0DFFE002108A803F03AFE3B
:10097000736856F8081B1A6808A806F0DDFE694679
:1009800008A806F019FF08A806F0D1FE2A4641463D
:10099000684607F0A2FB0028D9D00134DFE700BF8A
:1009A000A0840000A48400002DE9F04F8A46ADF237
:1009B0007C5D1946484B1F68DDF8A035B3F5807F94
:1009C00040F08480202A40F081805EAD2A4606F007
:1009D0003AFE0446002879D195F8FF30BC2B75D13A
:1009E0000DF198090DF10C0B4FF0DF084E46CBF8D6
:1009F00000000CA806F097FE00210CA803F0F2FD01
:100A000020220DF257210CA806F096FE042259462A
:100A10000CA806F091FE04A90CA806F0CDFE0CA8C7
:100A200006F085FE42469BF80330202AA8BF20220C
:100A30000133484604A901928BF8033007F017FBF5
:100A4000019AA8EB0208B8F1000F9144D1DC3046BE
:100A50003246DF23117815F801CB013B81EA0C0106
:100A600002F8011BF6D1337803F07F03337010F8DE
:100A7000015B5DBB0134BE2CF9D196F8BE30012B71
:100A800024D10CA806F04FFE29460CA803F0AAFDBD
:100A9000124908220CA806F04FFE514620220CA84D
:100AA00006F04AFE20220DF257110CA806F044FE73
:100AB00004A90CA806F080FE0CA806F038FE20223F
:100AC0000DF2572104A804F0E5FC074638460DF264
:100AD0007C5DBDE8F08F00BF14000020E18B0000BA
:100AE0002DE9F0479946A2B0294B9DF8A8A01D68B2
:100AF000064605A80F46904606F08BFD0922012107
:100B000005A806F08AFD234B53F83A40039403EB03
:100B1000CA0304AA5B681B681C442146302303A84F
:100B200007F01AF860BBDDE9033213449C4227D179
:100B300006AA214603A806F01FFB08BB08AA214607
:100B400003A806F019FBD8B906A806F015F8039B10
:100B500005909C4214D105A803F084FC80B906A836
:100B600006F00AF8059005A806F06BFD484507D188
:100B7000009043463A46314605A8FFF715FF054663
:100B800005A806F098FD284622B0BDE8F08700BF12
:100B900014000020A484000010B52C2359434218EF
:100BA000146A0CB904F09CFD41580D4B994206D1D2
:100BB000D16813895B1802D25189C91801D300206A
:100BC0000CE0A3689942FAD2106920F4F97020F081
:100BD00001000005000DB0FA80F0400910BD00BF13
:100BE0003DB8F3961FB52C2303FB02010A6A0AB92C
:100BF00004F076FD0023CDE9023301934FF48073B6
:100C00000093034BFFF7D6FD05B05DF804FB00BF72
:100C1000443F00202DE9F743554FDFF85881054642
:100C20002B6E013340F0848095F8643095F8652090
:100C3000013B3AB3013330D005F1140105F1400016
:100C400004F0A3FC421E544254412C2202FB0452E5
:100C50002C661369166ADB0523D5736852689342C4
:100C600022D00092444A4548002C08BF42465721F2
:100C700004F0BCFA2C44002384F864304FF0FF33B6
:100C80002B66CDE701330AD13D48492104F0AEFA85
:100C90003C4B186803B0BDE8F0830124D5E7144647
:100CA000D3E70EB904F01CFD05F166010023C5F879
:100CB000663030460B7102F01BFD0028F2D195F82A
:100CC0006630012B07D195F86830012B0CD195F8CF
:100CD0006930012B15D00023B2681946304604F064
:100CE00022FC0028C6D0DDE7304605F0A4FD40B167
:100CF000204A214B2448002C18BF1A46572104F0E3
:100D000075FA4FF02C0909FB0459D9F82060002E20
:100D1000C8D02146284604F013FC20B9D9F8101099
:100D200011F0100906D0194B18683B688342A1D115
:100D30000F4BAEE721462846FFF72EFF90B9114B27
:100D400018683B688342F0D00B4B0A4A1048002CCD
:100D500018BF1A46452104F049FA2146304604F0EE
:100D6000EAFBE0E7224649462846FFF73BFFE8E773
:100D7000C4010020768800007E880000AA88000058
:100D80008888000014000020F18800001000002076
:100D9000308900002DE9F043DFF81C9185B0D9F8C7
:100DA000006004460F4604F00DFC024628B1D9F855
:100DB0000060304605B0BDE8F0830146204604F0EF
:100DC000CCFB054648B13D48572104F00FFA2046B8
:100DD00004F010FC002DEAD1EBE701462046FFF7B6
:100DE000DBFE70BB364B374884F864502A464921F5
:100DF00004F0FCF901212046FFF7CEFE0246002850
:100E00002FD0012384F86530636C0293B4F842302C
:100E1000019394F84130009394F840302A4A2B48CB
:100E2000492104F0E3F94FF0FF3323662046FFF732
:100E3000F1FE0646264B1B6883421AD0D9F80060A3
:100E4000C5E7012384F86430A3690293E38A019320
:100E5000637D0093237D1F4A1C48492104F0C6F995
:100E6000C8E784F865001C4B1648492104F0BEF918
:100E7000D9E794F86010204604F0A2FB054600284C
:100E8000DCD1226E14490E4B002A18BF0B460246D5
:100E90004921124804F0AAF9236E2C2202FB0348D0
:100EA000D8F8200004F0A9F83871D8F820305B6831
:100EB000BB60C7F800808AE7140000205889000052
:100EC000768800007B890000CE890000AA89000096
:100ED000C4010020A28900007E880000D88900009B
:100EE00010B50446064804F092FB05482146FFF77A
:100EF00051FF0446024804F0D2FA204610BD00BF5C
:100F0000C8010020BFF36F8F72B6124B4FF0FF3253
:100F1000C3F88020C3F88420C3F88820C3F88C204D
:100F2000C3F89020C3F89420C3F89820C3F89C20FD
:100F3000C3F88021C3F88421C3F88821C3F88C2129
:100F4000C3F89021C3F89421C3F89821C3F89C21D9
:100F5000704700BF00E100E008B5044804F06DF8F8
:100F6000BDE80840024804F068B800BFFE890000F0
:100F7000248A000008B50348034A0021121A04F02D
:100F80005AFB08BD18010020484000200748084AC5
:100F9000084908B5121A04F050FB0748074A0849E7
:100FA000BDE80840121A04F048BB00BF0000002052
:100FB00018010020088C0000000000200000002024
:100FC000088C000030BFFFF7FDBF00BF70B5264B97
:100FD00015469A6A12F0100F9A6A14BF1124102451
:100FE00012F0080F9A6A18BF1224920706460AD513
:100FF000586B9A6A140634D519B19A6A22F08002A5
:101000009A62132401E06FF01500174B9A6A12F0F0
:10101000010F9A6A18BF142412F0200F9A6A18BFA1
:101020001524D20602D49B6A9B070AD50E4B5B6837
:10103000190506D5314600F0D7F910B180F30988BB
:101040000224094B9A6A920642BF5A6A22F400525D
:101050005A629A6A42F0FF029A6200232B7020467D
:1010600070BD6FF01500CCE700ED00E0134B9A6AFD
:1010700012F0007F9A6A14BF1E201D2012F0807F9C
:101080009A6A18BF1F2012F4002F9A6A18BF2120F5
:1010900012F4802F9A6A18BF222012F4003F9A6A35
:1010A00018BF232012F4803F9A6A6FEA02426FEA67
:1010B00012429A6218BF2420704700BF00ED00E082
:1010C00010B5194B0246986A9C6A10F4805F14BFF1
:1010D0001720162014F4006F9C6A18BF1820A4056E
:1010E00009D5986B986A000404D51AB19A6A22F45B
:1010F00000429A6219200C4B9A6A12F4806F9A6A25
:1011000018BF1A20D2050CD49B6A13F4005F18BFD5
:101110001C20054A936A43F47F43936200230B70BB
:1011200010BD1B20F5E700BF00ED00E0F0B5494B16
:101130005B688BB00446C3F30803002585F3118870
:10114000BFF36F8F02F07F40B0F17F4F11D102F0FB
:101150000C0008280DD010074CBF0C4601250022BA
:10116000033B8DF80720032B05D8DFE803F0246844
:101170006C652C46F3E700239DF80720CAB902AE40
:1011800004F1200720686168324603C20834BC427B
:101190001646F7D1099A002D59D0C2F3080121B99A
:1011A0006FEA52226FEA4222099202A9184604F01D
:1011B00046FA0BB0F0BD274BDA6A9107DBD4DA6A46
:1011C000002AD8DBDA6A5200D5D55A69A16942F4FF
:1011D00080725A61BFF34F8FBFF36F8F31F8022CCB
:1011E000596921F480715961BFF34F8FBFF36F8F3D
:1011F00002F47F43B3F55F4F04D1D2B2022A01D18A
:101200002368B9E7134B9A6AD2B23AB10DF10702DB
:1012100001212046FFF7DAFE0346ADE79A6A12F491
:101220007F4F05D00DF107010120FFF749FFF3E7DC
:101230009B6AB3F5803F9ED3FFF718FFECE70DF1F3
:1012400007020021E5E70DF107010020EDE76FF34C
:101250000802A9E700ED00E0044B5A6942F01002D1
:101260005A615A6922F008025A61704700ED00E0A5
:10127000EFF30880EFF3098101B57246FFF756FFDF
:1012800001BD00BF0B4880F3088801F013FB20204C
:1012900080F3118808484FF40461401880F30988EE
:1012A000EFF314800221084380F31488BFF36F8F9B
:1012B00000F07EF8C0700020804000200749D1F87F
:1012C00090200023C2F307221846934200DB7047A8
:1012D000C1F89830C1F8A0000133F6E700ED00E056
:1012E0001EF0040F0CBFEFF30880EFF30980816953
:1012F00011F8021C0229FFD001B5724604F0A5F9CD
:1013000001BD00BF40B2002807DB044A41090123A8
:1013100000F01F00834042F82130704700E100E0F8
:1013200040B200280CDB4309064900F01F002033BF
:101330000122824041F82320BFF34F8FBFF36F8F0C
:10134000704700BF00E100E0054B420900F01F00BC
:1013500053F82220012303FA00F01040704700BF29
:1013600000E100E040B20028A8BF00F1604001F1B8
:101370000101B8BF064B4FEA4111ACBF00F5614017
:1013800000F00F00C9B2B4BF195480F800137047C1
:1013900014ED00E0044B054A23F07F039360BFF394
:1013A0004F8FBFF36F8F70470000000000ED00E02B
:1013B00008B5FFF7EFFF0B4AD2F8883023F470032B
:1013C000C2F88830EFF3148323F0040383F3148806
:1013D000BFF36F8FFFF7CEFDFFF7D8FD00F038F8B1
:1013E00002F00CFA00ED00E010F1160F074B08D0E8
:1013F000984208D34033984205D2994203D2044818
:1014000070474033F9E70020704700BFC048002014
:101410000049002080B50C4607461546084E86F365
:101420000988002004498847204629461A46B847BB
:1014300002488047FEE7000069560000775600002A
:1014400000710020014B10221A61704700ED00E08E
:10145000044800232021C2180133302B82F80013E6
:10146000F9D1704700E100E008B5EFF30583064AC3
:10147000103B02EBC30152F8330049688847BDE8CE
:10148000084004F01CB900BF308200000148006829
:101490007047000034020020024B034A0348022137
:1014A00000F066B800FC032000000020F484000077
:1014B000084AC2F898000B6823F01F03034343F067
:1014C0001003C2F89C308B6843F00103C2F8A030CF
:1014D000704700BF00ED00E02DE9F043DFF86080C9
:1014E00085B00E461F4604464FF00009B14523DA89
:1014F0006068D8B13FB1411E08421BD11F2819D9DD
:101500002368194216D12368019304F0D9F8A3681F
:1015100003430393D8F89050C5F30725D0B2013D9B
:10152000A84207D801A9FFF7C3FF421C09F101092E
:101530000C34DBE76FF01502104605B0BDE8F08310
:1015400000ED00E0044B0522C3F89420BFF34F8F59
:10155000BFF36F8F704700BF00ED00E0BFF35F8FF8
:10156000024B0022C3F89420704700BF00ED00E05A
:1015700010B5034C01232278FFF7AEFF207010BD99
:10158000444000202DE9F0435A4B5B4DD3F8903096
:101590002C68C3F307239C4285B000F2A780FFF7B5
:1015A000DDFF00200C2684421AD1544EDFF844910E
:1015B00034706846FFF7D2F8514C524D80460027F0
:1015C000B84514D133784B490020D1F89020C2F3AC
:1015D00007229342C0F28480FFF7B4FF002045E069
:1015E000696806FB0011FFF763FF0130DBE7009835
:1015F00000EB07114FEA071CCB682340B3F5000F3F
:101600004DD00AD8B3F5001F33D0B3F5800F3BD0CF
:10161000B3F5801F13D00137D2E7B3F1007F47D075
:10162000B3F1805F4DD0B3F1807FF4D150F80C302E
:1016300088684A6804F044F840F0887009E050F87F
:101640000C3088684A6804F03BF840F0885040F459
:101650003020CDE901230390D9F890303078C3F3DE
:101660000723013B984234D96FF0150005B0BDE85F
:10167000F08350F80C3088684A6804F021F840F094
:10168000885040F40020E4E750F80C3088684A683D
:1016900004F016F840F0007040F40030D9E750F83C
:1016A0000C3088684A6804F00BF840F08270D0E78C
:1016B00050F80C3088684A6804F002F840F4802042
:1016C000C7E750F80C3088684A6803F0F9FF2843F0
:1016D000BFE701A9FFF7ECFE3378013333709AE7D7
:1016E000C1F89830C1F8A00001336EE74FF0FF3029
:1016F000BCE700BF00ED00E00C8500004440002086
:101700000000F0FF0000021108B5024803F00EFBD4
:10171000FEE700BF598A000008B5024B1B689847D6
:10172000002008BD3802002008B5054803F085FCFC
:10173000002383F31188BFF36F8F0423184602DF61
:101740005E8A000000B5FFF7A1FE034B0C221A5081
:1017500000205DF804FB00BF08000000044A0123DC
:10176000C2F840354FF080420020C2F8783570470B
:1017700000E0014048B1054B054A1B68B3FBF2F39A
:101780005843044B43F0010318477047B80000204A
:1017900040420F00908400000A4B0122C3F8042548
:1017A000D3F80024002AFBD00160D3F80024002ADB
:1017B000FBD00022C3F80425024AD2F80034002BE3
:1017C000FBD0704700E0014010B54FF01023D3F874
:1017D0000413D3F8084201F00703072B26D121F0A8
:1017E0000701154841F00401FFF7D6FF01204FF033
:1017F0008053D3F80431C3F30723452B18D9E3B240
:10180000FF2B15D124F0FF010C4841F05A01FFF7DE
:10181000C3FFBFF34F8F0A490A4BCA6802F4E06264
:101820001343CB60BFF34F8F00BFFDE70020DEE71F
:101830000028EED110BD00BF0413001008120010E4
:1018400000ED00E00400FA052DE9F7431B4EDFF838
:1018500070801C4F05460C4614B903B0BDE8F083F8
:10186000EFF31189202383F31288BFF36F8F04F005
:10187000F4FB1549D1E90032C31842F1000008FB1E
:1018800003F206FB0022A3FB0630DB1942EB000249
:10189000C1E9003289F31188BFF36F8F042CA14690
:1018A00028BF4FF00409019228464A4601A906F0D4
:1018B000DEFB4D44A4EB0904CEE700BFFDB0B087CA
:1018C000E62EBB272DF304B500000020084B70B5B1
:1018D000C31A0D4607499B10044659430648402247
:1018E00003F010FF2B4601462046BDE87040184724
:1018F00050020020B76DDBB68881000073B50C4C38
:101900000C4A4023041B00930D460B460A49A410C1
:1019100061430646094803F021FF014628B13046DD
:101920002B4602B0BDE87040184702B070BD00BF42
:1019300050020020CF570000B76DDBB68881000051
:101940000022F8B5012105461046FFF70BFD1048AF
:1019500001F092F80446B8B901F0AEF82F690D49CC
:10196000384603F0C6FB031E09DB01263E642D69E1
:10197000084905F11C0003F0BCFB031E02DA1C46FB
:101980002046F8BDEE64FBE76FF00404F8E700BF03
:10199000911A00003085000010B5EFF31184202368
:1019A00083F31288BFF36F8F074A136823F0020195
:1019B000DB07116002D4012004F0A8FB84F3118836
:1019C000BFF36F8F10BD00BFA002002030B4104BDA
:1019D0000C2202FB003301460020D3E90E5298632B
:1019E000EFF31180202484F31288BFF36F8F1C6CF7
:1019F00004F0C00444F002041C6480F31188BFF3B7
:101A00006F8F1DB12B46034830BC184730BC704760
:101A1000500200208881000010B4EFF311802022D2
:101A200082F31288BFF36F8F17490B6843F00204EB
:101A300013F001030C601AD04FF08043D3F80C145C
:101A4000D3F80C3413F0010311D0EFF3118182F3BA
:101A50001288BFF36F8F0D4A136C03F0C00343F07D
:101A60000203136481F31188BFF36F8F012380F3A6
:101A70001188BFF36F8F1BB110BC0020FFF7A6BF0A
:101A800010BC012004F03ABBA0020020500200204C
:101A900010B1012804D07047034B1B6C5B0701D1C8
:101AA000FFF794BF704700BF500200202DE9F041BE
:101AB0003549BFF35B8F0746012251E8003F41E8FB
:101AC00000200028F9D1BFF35B8F33B92F4930488C
:101AD0004B60CB608A6003F01FFB7B1E012B4AD852
:101AE000012F07D14FF08043D3F81C3403F00303D8
:101AF000012B40D004F0E8FE054660B1EFF31186FB
:101B0000202383F31288BFF36F8F01254FF08044A9
:101B10004FF001081EE01F4B1B78002BEED04FF05A
:101B200080430222C3F808230646EFE7304603F05D
:101B3000B7FDD4F81835184A63B9D4F8041149B17F
:101B4000C4F80431D4F80431C4F81885C2F880818F
:101B5000C4F80880D4F81814D4F81834CA03E5D5AA
:101B600003F00303012B01D0012FDFD12DB186F348
:101B70001188BFF36F8FBDE8F0814FF080430222E0
:101B8000C3F80423F7E700BF4C0200203C0200200A
:101B90006C0200204640002000E100E0024B0B6098
:101BA00001231360704700BFC085000000487047E4
:101BB000548500002DE9F04F43688BB05E6B07AD94
:101BC00080462A460021304604F0BBF8041EC0F2CD
:101BD0009380079B32681979186800F03FFB041E58
:101BE000C0F28A80002201212920FFF7BBFBD8F830
:101BF0000490D8F810206749484601F053FC041EB1
:101C000075DB00230793C5E90133634CAB238DF8E3
:101C10001C30D4F82425D2B20192D4F82835DBB296
:101C20000093D4F830155FFA81FBD4F83415D4F85A
:101C30003875D4F83C655FFA81FA4FF0FF31C4F88B
:101C400024150120C4F82815C4F83015C4F834153B
:101C5000C4F83815C4F83C1501F096FC019AFF2A27
:101C600008BF4FF0FF32C4F82425009BFF2B08BFAC
:101C70004FF0FF33BBF1FF0FFFB208BF4FF0FF3B48
:101C8000BAF1FF0FF6B208BF4FF0FF3AFF2F08BFBF
:101C90004FF0FF37FF2E08BF4FF0FF36C4F828354E
:101CA000C4F830B5C4F834A5C4F83875C4F83C6538
:101CB000064628BB0146284603F0D6FD041E16DB67
:101CC0001E204FF0030B04F0BEFD0DF1100ACDE90C
:101CD00006B69F236E6005AF31462846CDF814A0A6
:101CE0008DF81C30099703F0BFFD041E0BDA01F0DC
:101CF00067FC08B101F054FC20460BB0BDE8F08F42
:101D00006FF00404F3E75A46514609F1300006F03B
:101D1000E4F90446002838D1D8F80420537F023B68
:101D2000012B30D9167F023E022E8CBF00260126E1
:101D3000022003F0C7FD00282ADBC2B2C0F3400036
:101D4000B042D4D0002382F002020121CDE9061373
:101D5000ADF80C30AB608DF80C20312303AA284677
:101D600005928DF81C30089703F07EFD044600288C
:101D7000BDD1012003F0A6FD041E01DBE307F8D46A
:101D800004EAE474B3E70126D2E76FF01204AEE789
:101D90000446ACE75358000000900240024B0B6031
:101DA00001231360704700BFAC0200200048704759
:101DB000C885000010B504F0ADFC034C206004F0B1
:101DC000A5FC6060002010BDAC0200204FF08042F6
:101DD000D2F81015D2F8103501F01E0123F01F03C0
:101DE0000B4343F00103C2F81035024B00221A7076
:101DF000704700BF454000204FF08053D3F830318A
:101E0000082B20D14FF08042D2F81015CB071AD5FD
:101E1000D2F8103501F01E0123F01F030B43C2F866
:101E20001035D2F808315BB1D2F8103523F01F031A
:101E30000B4343F00103C2F810356FF08B0070477D
:101E4000024B01221A700020704700BF454000205D
:101E50002DE9F0410D46164604F058FC3146074680
:101E6000284603F0F1FE28B3B5FBF7F307FB135345
:101E700003BBB6FBF7F407FB1464DCB9B74213D815
:101E800004F044FCDFF834800746FFF7B5FF044652
:101E900068B9284601F0AAF898F800300BB1FFF7AE
:101EA00095FFF61B3D44F0D12046BDE8F0816FF070
:101EB0008B04F9E76FF01504F6E700BF45400020FA
:101EC0002DE9F8430E463046194617461C4603F0E6
:101ED000BBFE30B346EA040515F0030521D11CB35F
:101EE000DFF8489024F00304AC4206EB050807D164
:101EF0000F4AD2F80034DB07FBD50020BDE8F88399
:101F0000FFF77AFF50B97959404601F08BF899F8FC
:101F100000300BB1FFF75AFF0435E5E76FF08B0097
:101F2000ECE76FF01500E9E72046E7E745400020C1
:101F300000E001402DE9F043476840F20636D00644
:101F40003B7C87B002EA060654BFC2F3401C4FF048
:101F5000030C01F01F05B6F5837F144645EA4315CF
:101F60008DF803C044D00DD8062E16D005D8A6B1E2
:101F7000022E3FD06FF0150037E0B6F5807FF9D123
:101F800001260AE040F20222964235D0B6F5407FA3
:101F900034D0B6F5007FEDD10226220330D57A6821
:101FA00001238B40C2F80835B868A0BB05F01F03B9
:101FB0006D092DD0012D77D13E4A02EB8302C4F387
:101FC0000043D2F8001783F00103C4F3404444EA0D
:101FD000430421F4E16144EA8C0421F0070144EA5E
:101FE00006230B43C2F80037002007B0BDE8F0839A
:101FF0000726D2E70426D0E70526CEE70326CCE75E
:10200000630341BF01237A688B40C2F80C35CBE7EC
:102010004FF0A042D1E70DF10202294604F0E6FAA2
:1020200014F4403F80460CD1B868294604F013FBF5
:10203000B8F1000FD8D19DF80210B86800F0D2FEB8
:10204000D2E74FF0000901ABCDE90199CDE90439A0
:10205000CDF80C90B86803AA294604F09CF94845CD
:10206000C2DB14F4003314D0C4F300449DF80330F1
:102070008DF80E3084F001048DF80C608DF80D4061
:10208000B8684B4603AA294604F038FA0028CFDA8C
:10209000AAE7CDE904330DF103030393B86803AA5B
:1020A000294604F078F9F1E703F5E07350F823309E
:1020B000FFDE00BF00030050420970B5034602D0A6
:1020C000012A17D070BD0D4E326951680029F9D030
:1020D00003F01F0301250C689D400029F2D08A6897
:1020E0002A4002D04B68304698472CB123682146DD
:1020F0001C46F2E7024EE7E72346F8E7C0810000FE
:10210000A481000038B54568A86890B104F09DFA34
:10211000014670B9A86804F07CFA044658B9024632
:102120000649A86804F05FFA224605210620FFF759
:1021300019F9002038BD6FF00400FBE7B92000005A
:10214000F0B545681646A8682A7C01F01F0487B0E0
:1021500044EA4214002869D0B6F5001F04D1214694
:1021600004F0CCFA002052E001AA0020B6F5800F5E
:102170000190506037D1B3F1007F14BF05230423D1
:102180008DF804300023CDE904230393EB6823FA90
:1021900001F111F001010DF103073AD1B6F1A07F71
:1021A00037D104F01F03620903F5E07326D0012A3A
:1021B0003FD1214A52F82330DB072AD4A8683A4697
:1021C000214604F013FA16301BD00297A86803AA20
:1021D000214604F0E0F8002819DBA8680122214616
:1021E00004F03BFABEE7B3F1C06F05D0B3F1007F56
:1021F00014BF01230223C3E70323C1E74FF0A0422A
:10220000D8E7A868394600F0F3FD0028DDDA07B00A
:10221000F0BDA8683A46214604F0E8F90028D5D177
:102220009DF80310A86800F0DDFDCFE76FF0850092
:10223000EDE751F82330FFDE00030050036803F0A0
:102240001F025B09026004D0012B034818BF002065
:1022500070474FF0A0407047000300502DE9F04F49
:1022600000EB8109644985B01546834640F2FF1AA8
:10227000D94503D1002005B0BDE8F08FDBF80000A0
:10228000C0F3C72818F00808C0F3C322C0F308043D
:1022900040F0AF80594B544508BF4FF0FF34B0F1C8
:1022A0000C5F9F5C4FEA106216D2032A16D9043ADB
:1022B0001E2A13D8DFE802F0151B1F121212123368
:1022C0003D121212121212124043468184871212DA
:1022D000128A8E9194979A004E2A10D06FF0850042
:1022E000C9E7C5F808450026601C36D162E0C5F88C
:1022F0000C450126F8E7C5F81045002615E0C5F89D
:102300001445621C56D003A80394FFF797FF039A65
:10231000012606FA02F2C0F80825304628E0C5F882
:102320000845002FE9D100260627631C42D0002073
:102330001EE0C5F80C45F4E7C5F84045D9E7C5F8F7
:102340004445DAE7C5F86045BBF80220661C02F098
:1023500001022FD0002AD6D1012603A80394FFF74B
:102360006DFF039A8446012000FA02F2CCF80C2596
:10237000DBF80020019202F4004CBCF1000F08BF12
:10238000804603A818BF01260394FFF757FF039C5C
:10239000019A00EB8400C2F3412CD0F800473A02C6
:1023A00042EA8C0242EA08020C40224342EA460218
:1023B000C0F800270BF1040B5AE7C5F86445C3E7E2
:1023C000C5F86845C0E7C5F86C45BDE7C5F82445C4
:1023D0000126AAE7C5F8284593E7C5F83045F7E791
:1023E000C5F83445F4E7C5F83845F1E7C5F83C458C
:1023F00087E76FF015003EE7F0F8FCFFE98B00007F
:1024000008B578B10849094A4FF4004E8C460021BE
:10241000E0FB0EC100236046FDF772FEBDE80840F8
:1024200001F026BA08BD00BF3F420F0040420F0036
:1024300070B5012383400F4ABFF35B8FDC4352E842
:10244000001F01EA040542E80056002EF7D1BFF351
:102450005B8F4FF4803282400748C0F80823BFF3F7
:102460005F8FBFF36F8F03EA0100003818BF0120B0
:1024700070BD00BFD40200200010014070B41249AA
:10248000D1E90034D01AC31844F1000422F07F4689
:10249000C1E90034A6F50013B3F5400F09D20B4B88
:1024A0001B681A0A1B069C19094B42F10005C3E977
:1024B0000045EFF31181202383F31288BFF36F8F60
:1024C00070BC01F0B1BA00BF28010020D802002082
:1024D0003001002011B3BFF35B8F0123104A83400A
:1024E00052E800CF4CEA030C42E800C10029F7D1C2
:1024F000BFF35B8F0B4A4FF480338340C2F8043341
:10250000094BBFF35B8F1B68BFF35B8FC340DB07D7
:1025100042BF064B4FF40032C3F80021704700BFA2
:10252000D402002000100140D002002000E100E0B1
:102530000D4B1868010A0006BFF35F8F0B4BD3F8F1
:102540000435181841F10001B3F5801F0AD2084B79
:10255000D3E90023904271EB030303D210F18070A2
:1025600041F10001704700BFD80200200010014077
:10257000300100202DE9F04F85B016461F469DF82A
:1025800040A00446FFF754FF0190FFF7D1FFB0428F
:1025900071EB07035ED23E4B301A67EB01019842A4
:1025A00071F1000109D36FF0150520460199FFF77D
:1025B00091FF284605B0BDE8F08F364B03EB0413BE
:1025C000D3E902239F4208BF964254D032494FF4C8
:1025D000803804F1500508FA04F8AD00C1F84883CA
:1025E0002046ADB203F02DFD26F07F4B05F180456E
:1025F00004F5A87305F58835DC464FF0030902930E
:10260000029A2CF07F4341F82230C1F84483D1F87C
:102610000435224A6FF00200C01A604420F07F4067
:10262000904228D9286868B1D1F804350393A3EB08
:102630000B0020F07F40B0F5000F1CD9204603F0BE
:1026400000FD039BBAF1000FADD109EB030C09F1BA
:102650000109D5E7BAF1000FA5D10123104ABFF354
:102660005B8FA34052E8000F184342E800010029A5
:10267000F8D1BFF35B8F07490E98230101EB0412D9
:10268000C8500F9B5360C2E9026700258DE700BF69
:10269000010080001801002000100140FDFF7F00B4
:1026A000D00200207FB51C4C1C4BC4F80833C4F882
:1026B00048331B4B00254FF0FF304FF0FF31C4F87B
:1026C0000855C3E902014FF48033C4F80433154BB5
:1026D00002264FF400320121C4F804631120C3F82C
:1026E00080212A46FEF73EFE1120FEF70BFE0E4A21
:1026F0000123A360236013600C4B0D4A0093CDE9C6
:10270000015500232846FFF735FF3046FFF7CEF985
:10271000284604B070BD00BF0010014003000F0048
:102720001801002000E100E0D40200207D24000018
:10273000FFFF7F002DE9F7432E4CD4F804339907AF
:102740000BD5D4F8043143B12B4A0023C4F804312B
:10275000D4F80431136801331360D4F80433DA0376
:1027600043D5BFF35B8F254B53E8002F22F00101C7
:1027700043E800100028F7D1BFF35B8FD30702D4E2
:10278000D4F840318BB30025C4F84051D4F840311F
:10279000FFF7CEFEEFF31182202383F31288BFF3FD
:1027A0006F8F174BD3E90267B042B94120D34FF086
:1027B000FF304FF0FF31C3E90201D3E900981D60FB
:1027C0004FF48033C4F84833C4F84051D4F8403152
:1027D00082F31188BFF36F8FB9F1000F05D0CDF8E8
:1027E000008032463B460020C84703B0BDE8F08376
:1027F000A946EDE700100140D8020020D0020020D9
:102800001801002030B5431C124C85B005D084421D
:10281000A8BF0446012CB8BF0124FFF789FE0E4B68
:102820000C4DD3E90013401AB0F5000F10D2221856
:10283000AA4228BF2A4652184FF0000007490091CB
:10284000CDE9010043F10003FFF794FE05B030BD70
:102850002A46F0E7FFFF7F00280100207D240000CA
:1028600008B5FFF765FE024B1B68C01A08BD00BF24
:102870002801002010B5084C012363601120FEF7E9
:102880004FFD064BC4F80833C4F84833044B4FF4EB
:102890000032C3F8802110BD0010014003000F007A
:1028A00000E100E0024AD2F80034002BFBD0704770
:1028B00000E0014010B54FF08053D3F83021082AD2
:1028C0004ED14FF080420021C2F80C11C2F8101115
:1028D000C2F8381502F54042D3F80414C2F82015A6
:1028E000D3F80814C2F82415D3F80C14C2F828152C
:1028F000D3F81014C2F82C15D3F81414C2F83015FC
:10290000D3F81814C2F83415D3F81C14C2F84015C3
:10291000D3F82014C2F84415D3F82414C2F848158B
:10292000D3F82814C2F84C15D3F82C14C2F850155B
:10293000D3F83014C2F85415D3F83414C2F8601523
:10294000D3F83814C2F86415D3F83C14C2F86815EB
:10295000D3F84014C2F86C15D3F84434C2F870357B
:1029600003F07FFB18B1374B374AC3F88C2603F0CE
:1029700078FB18B1354BFB22C3F8182503F071FB27
:1029800058B14FF080424FF08051D2F8E43ED1F878
:10299000581261F30303C2F8E43E03F062FB20B176
:1029A0002B4B4FF40072C3F840264FF08053D3F8FE
:1029B0003031082B17D14FF08043D3F80024D207D1
:1029C00044BF6FF00102C3F800244FF08053D3F8E6
:1029D0003431042B81BF4FF01023D3F808224FF07D
:1029E0008043C3F858254FF01023D3F80022002A63
:1029F00003DBD3F80432002B22DA164901234FF00F
:102A00001020C1F804351224FFF74CFFC0F8004233
:102A1000FFF748FFC0F80442FFF744FF0023C1F866
:102A20000435FFF73FFFBFF34F8F0B490B4BCA68CD
:102A300002F4E0621343CB60BFF34F8F00BFFDE7AA
:102A400010BD00BF005000404881030000F000406E
:102A50000090024000E0014000ED00E00400FA05B3
:102A6000014B00201B681847DC020020014B1B684B
:102A7000184700BFDC02002010B50C4C237993B935
:102A8000012323710A4B2060002818BF184600F06C
:102A900049F850B923680748002BBDE8104008BF2B
:102AA000184600F08FB86FF0770010BDDC020020F0
:102AB000612A00006D2A000008B5064B1B683BB177
:102AC0000020FEF741FC18B9BDE80840FEF71ABC2B
:102AD00008BD00BFDC02002038B54FF08044012360
:102AE000C4F8083363600023C4F80031D4F800311F
:102AF00042F21075D4F80C24D4F80C34D20307D564
:102B0000DB0705D5012003F0BCFA013DF2D138BD49
:102B100003F00BFB0028FAD0014B00225A71F6E7B4
:102B2000E402002010B508490C794CB90123086073
:102B30000B7103F0FAFA08B9002010BD4C71FBE7E5
:102B40006FF07700F9E700BFE40200204FF0804308
:102B50000022C3F80021D3F80021094901221A609C
:102B6000096811B1C3F804237047D3F80021002A83
:102B7000FBD00022C3F80021D3F80031704700BF1A
:102B8000E402002010B54FF08043D3F80423D207AD
:102B900015D5D3F8002192B10022C3F800210121FC
:102BA000D3F80021C3F8081303F0BFFA044B10B1A7
:102BB0005A7922B95971BDE810401B68184710BDF9
:102BC000E4020020074A137943B901211060117112
:102BD0004FF080421846C2F8183570476FF0770002
:102BE000704700BFEC02002010B54FF080431D4C31
:102BF000D3F81814D3F8182411F4803F1AD002F037
:102C00000302012A01D092B900224FF08043C3F899
:102C100018250022C3F80421D3F8042101229A6068
:102C200022688AB9D3F80421002AFBD014E003F00B
:102C30008DFAE9E7D3F81424D107E5D5D3F81C249D
:102C40009207F4D422681AB10222C3F8042310BDFB
:102C5000D3F80421002AFBD00022C3F80421D3F8C2
:102C60000431F4E7EC020020F8B54FF08043194F2F
:102C7000D3F80443012504F01A04002604B9F8BD72
:102C8000B4FA84F0C0F11F00830003F580739BB297
:102C900003F1804305FA00F2196892B224EA0204B3
:102CA0000029EBD01E601B684FF08043022AC3F856
:102CB00008230BD1D3F81814D3F81814890705D1B9
:102CC000C3F81855C3F804239D60D7E73B68C0B22A
:102CD0009847D3E7EC020020036803F01F025B096A
:102CE000026004D0012B034818BF002070474FF04A
:102CF000A040704700030050034A430900F01F0042
:102D0000D35C1844C0B27047F18B0000024611F04A
:102D1000010030B515D18B07C1F3400022D512490F
:102D2000D1F8200550604FF08052C1F82005D2F84C
:102D30003021082A08BFD1F82025003818BF01200B
:102D400010E04FF0A0444FF08055D4F820351360C8
:102D5000C4F82035D5F83051082D08BFD4F82045E7
:102D6000002BD8D030BD00BF00030050F7B504469B
:102D70000846FFF7C1FF04EB40060D46B38ADB07A8
:102D80002AD5204603F0E5FA2946204603F051FAF9
:102D900050B1204603F063FA276807EB8000002358
:102DA000C0F81035C0F810352946204603F080FAE7
:102DB0000021B18201A80195FFF78EFF019B00EB76
:102DC0008300074BD0F80027134043F00203C0F8FC
:102DD0000037084603B0F0BD6FF01500FAE700BFFA
:102DE000F0F8FCFF014803F06CB900BFBC00002004
:102DF00010B504480C4603F046F90028A4BF207023
:102E0000002010BDBC0000202DE9F04F074689B01E
:102E100057F8049BD9F80413C9B28346082241F03D
:102E20000041484603F06DFA051E2FDA0023032106
:102E300006A8CDE90633FFF769FF634B01930DF157
:102E400018084FF0000A019A604912F8013B0192FC
:102E5000DA0803F007038A5C22FA03F3DB071CD4C9
:102E60000AF10103022B08F104084FF0010AEAD12C
:102E70004FF000410022484603F043FA032106A820
:102E8000FFF744FF0028D8D125F000450124002D8C
:102E900040F0848009B0BDE8F08F4D4B534402935D
:102EA000D8F80060002EDBD0029B96FAA6F61C78BC
:102EB000B6FA86F646EA44142046FFF71DFF0BEBF0
:102EC0004000F208818A18F802000594C1F38203D9
:102ED0000393009306F00706012303FA06F620EA9F
:102EE000060008F8020005A8FFF7F6FE059A039B06
:102EF00002F5E07211F0100F50F82260C6F301469F
:102F000033D0009A3846214603F0B3F905A805945A
:102F1000FFF7E2FE059B03F5E073F6B250F82330AD
:102F2000C3F301439E4207D10021204603F072F90A
:102F30003146204603F06EF905A80594FFF7CCFE54
:102F4000059B012202FA03F3C0F820354FF08053AD
:102F5000D3F83031082B01BFD0F82035D0F8203518
:102F6000D0F82035D0F820359AE7022E14BF022180
:102F700003212046039303F04DF9039B032B03D059
:102F8000022E07D1012BD7D1009A2146384603F0F3
:102F900070F9D1E7032ECFD1022BF4E795FAA5F310
:102FA000B3FA83F304FA03F225EA020503F5A272E9
:102FB0000BEB430359F82220B3F87C10C2F3014213
:102FC000384603F056F962E7018C00002C860000B9
:102FD000018C0000044AD2F80034DB07FBD5016005
:102FE000BFF35F8F704700BF00E001404FF0805398
:102FF0001A69B0FBF2F302FB13036BB9084B022210
:10300000C3F80425C3F80805D3F80024D207FBD57C
:103010000020C3F8040570476FF00C00704700BF34
:1030200000E0014010B5054C0123C4F80435FFF75A
:10303000D1FF0023C4F8043510BD00BF00E00140FB
:1030400070B5114D6C6BA4B14FF47A735C430A23D5
:10305000B4FBF3F40D4ED6F800316BB995F8393066
:1030600053B90A2003F00DF8013CF4D16FF073005E
:1030700008E04CF25034EDE795F8393003F0FF00EA
:10308000002BF3D170BD00BFF4020020009002407D
:103090000A4B10B500220124C3F80045C3F80021F3
:1030A0001C6028B1FFF7CCFF20B9054B83F83840EE
:1030B000002010BD6FF07300FBE700BF00900240DE
:1030C000F402002070B500F06044B4F1005F5DD1FF
:1030D00084075BD1304C94F83050012D05D09D42CF
:1030E00057D194F83850002D53D02C4D022B0BBFE4
:1030F000C5F81025C5F80425C5F81405C5F8080558
:103100000CBFC5F81815C5F80C154FF0000684F86B
:10311000396026680CBF08250425BEB994F83830FC
:103120006BB11E4B05F1804505F524350022C3F82F
:10313000002101232B60BDE87040FFF781BF012013
:10314000FFF7A6FF10F1740FEBD170BDA66826B192
:10315000E0606161E2610020F7E7A2610F4A84F854
:1031600030300123A0602161C2F80061C2F804334D
:1031700094F8382002F0FF0012B9FFF789FFEAE760
:1031800005F1804505F524352B60E4E76FF00C0070
:10319000DBE76FF00F00D8E7F40200200090024058
:1031A000084B9A685A621A699A629A69DA62DA680E
:1031B0009A6032B15A691A61DA699A610022DA605A
:1031C00070477047F402002000F01F0340090FD041
:1031D000012810D10B4A02EB83020B4BD2F80007F7
:1031E000034043EA012343F00203C2F8003770476B
:1031F0004FF0A042EFE7002203F5E07352F82330CE
:10320000FFDE00BF00030050F0F8FCFF10B50E4BCE
:103210000238D3F83C26D3F83836072813D8DFE82D
:1032200000F0110F0D0B0A080604100EC871100CE7
:103230008871100A48710A711A0ECA701A0C8A70C5
:103240001A0A4A700B7010BD00900240023807281D
:103250001FD8DFE800F02927251123211F04CB798F
:103260001B068A7943EA02434A7943EA02230A7930
:1032700013430E4AC2F83C36CB781B068A7843EAE1
:1032800002434A7843EA02230A781343074AC2F802
:10329000383670470023E4E70023E5E70023E6E73C
:1032A0000023EBE70023ECE70023EDE7009002406A
:1032B0000268154BFF2A08BF4FF0FF32C3F82425E0
:1032C0004268FF2A08BF4FF0FF32C3F82825826802
:1032D000FF2A08BF4FF0FF32C3F83025C268FF2A2B
:1032E00008BF4FF0FF32C3F834250269FF2A08BF38
:1032F0004FF0FF32C3F838254269FF2A08BF4FF06C
:10330000FF32C3F83C2570470090024030B5194D9C
:103310000FCD8DB006AC0FC495E8030084E8030020
:103320001549D1F82435DBB20093D1F82835DBB24A
:103330000193D1F83035DBB20293D1F83435DBB2EA
:103340000393D1F83835DBB20493D1F83C3506A8A5
:10335000DBB20593FFF7ACFF0023C1F80031012376
:103360000B60D1F80031002BFBD06846FFF7A0FFBF
:103370000DB030BD708400000090024070B590F830
:103380002930044613B190F82A204ABB6068FF2810
:1033900067D0A268FF2A64D0E268FF2A61D0226960
:1033A000FF2A5ED0B3B90321FFF70EFFA068FFF735
:1033B0000BFFE068FFF708FF2069FFF705FF606972
:1033C000FF2801D0FFF700FFA069FF2802D00321EA
:1033D000FFF7FAFE94F82A3013B9201DFFF768FFB3
:1033E000214E636A736394F8293086F83A304FF0BF
:1033F00080531E4DD3F83031082B04D10123C5F87A
:103400000833FFF783FF2368C5F84035A37F617F4A
:10341000227F9B0143EAC1031343E27F43EAC213C5
:10342000C5F84435D5F8002694F8203022F07F42C4
:1034300022F0FF02134394F8212043EA026394F838
:10344000222043EA426394F8232043EA0273C5F83A
:10345000003633680BB9002070BD2920FDF752FFFC
:10346000F9E76FF01500F7E7F40200200090024042
:103470000A4B002283F83820094B01214FF080507D
:10348000C3F808131961D0F83001082808BF59653E
:10349000C3F80025C3F80021704700BFF4020020E4
:1034A0000090024038B50D4C94F8305095B9C4E9FD
:1034B000001240B90020C4E90200012384F8303032
:1034C00084F8380038BDFFF759FF0028F2D06FF0BC
:1034D0001500F7E76FF07700F4E700BFF402002073
:1034E0002DE9F041DFF89880064698F83000012871
:1034F0000F46144640D198F8383083B3214D01234C
:10350000C5F808334FF08053D3F83031082B01D180
:10351000FFF7FCFE1FB170783946FFF797FE0027D2
:1035200088F83970C5F80071B37872781B0343EAE4
:10353000022332781343F27843EA4233327943EA82
:103540008233727943EAC233C5F83436FFF778FD27
:10355000743008D0C5F800714CB9002005E0FFF7C1
:1035600097FD7430CAD16FF07300BDE8F0817078B8
:103570002146FFF74BFEF0E76FF00F00F5E700BFC5
:10358000F402002000900240044B93F838300BB94D
:10359000FFF77EBD6FF07700704700BFF402002098
:1035A00008B5064B93F83030012B03D1FFF760FFCD
:1035B000002008BD6FF00F00FBE700BFF402002001
:1035C000034B93F83000003818BF0120704700BF4C
:1035D000F402002038B58B0735D11E4B1D681DB194
:1035E00093F83020012A31D11B4C0022C4F81C155D
:1035F000C4F8200583F8392095B993F8383043B1E1
:103600000023C4F800310123E360BDE83840FFF730
:1036100017BD0120FFF73CFD10F1740FF0D138BD4C
:10362000042183F83010C4F800210122C4F80423D7
:1036300093F8383003F0FF001BB9FFF729FD002095
:10364000EDE7E260FBE76FF00C00E8E76FF00F00DA
:10365000E5E700BFF40200200090024010B5224BC5
:10366000D3F8002192B1214C0022C3F8002194F834
:10367000381094F8302071B90121032A84F83810E9
:1036800005D0042A05D0022A00D1996010BD5960E6
:10369000FCE7D960FAE7032A19D0042A19D0022AD4
:1036A00004D1012384F82030FFF77AFDA36813B911
:1036B000012384F8303094F8393003F0FF0013B957
:1036C000D4E900319847002384F82030DEE7022354
:1036D000E8E7032284F82020D3F81C256262D3F89F
:1036E000203584F82830E1E700900240F402002001
:1036F00030B50D46816887B0102302AA1039044600
:1037000001F08FFD002802DA012007B030BD102241
:1037100002A9204603F025F800283AD11E491022BC
:1037200002A804F0DAFC00280CBF012302232B704E
:10373000204603F010F8012301460DF10702204650
:1037400001F06FFD0028DFDB9DF8073003F00F026A
:103750001B096A702B7101220DF10701204603F04D
:1037600000F810B96B78042B03D901236B70002388
:103770002B71A268183A22F00702083AA91C2046C9
:1037800003F002F80028BFD1E91C204603F04DF8F1
:10379000BBE70323CBE700BF6A87000038B50A4BBD
:1037A00053F82040013053F82050A54200D838BDCE
:1037B000606830B1037EDB0701D403F048F80834B9
:1037C000F3E723689847FAE73086000008B5094B0D
:1037D000012203201A70FFF7E1FFFDF7BDFB042073
:1037E000FFF7DCFFFCF704FE034A938923F0010393
:1037F000938108BD464000203801002008B5002014
:10380000FFF7CCFF174B83F30888174C636943F429
:10381000007363610025E02384F82230E577257684
:103820006576A57684F82050636A43F4E0236362EA
:1038300084F82350FDF710FDFDF704FE4FF0FF3331
:10384000A362E362FDF79EFEFDF726FE0120FFF76F
:10385000A5FF0220FFF7A2FF04482B462A4629466F
:10386000FDF7D8FDC048002000ED00E0CD37000096
:10387000B1F1FF3F08BFB0F1FF3F07B50B4602466D
:1038800006D101F000FF4FF0FF3003B05DF804FBFC
:1038900000210020CDE90001034800F0A9F9024809
:1038A00003F066F80020F0E7E0000020024B186803
:1038B000984208BF00207047C0000020034B1B68DF
:1038C0000BB9FEF7CDBF0020704700BF30030020CA
:1038D00030B570B10B4B5B6898420AD0036843B1B6
:1038E000D3E90421D0E90445121941EB0501C3E9EC
:1038F0000421D0E9003213605A600023C0E900338C
:1039000030BD00BFC0000020B3F1FF3F08BFB2F1DF
:10391000FF3F2DE9F84F0446994615461F467AD0D9
:103920008160EFF31188202383F31288BFF36F8F38
:10393000B9F1000FDFF8E4A020DBFFF7BFFFDAE901
:103940000027013549F100092D1849EBE073C4E95E
:103950000453AD18064643EB07074FF00109FFF784
:10396000A5FFDFF8BCE0DEF804A00346EBB9C4E92C
:1039700000EACAF80040CEF8044028E0DAE9001274
:103980006FF001035B1A4FF0FF3161EB02025B1B2A
:1039900062EB0902012B72F10001BCBF012300227E
:1039A000C0E904324FF00009D9E7D3E9041CD4E997
:1039B00004208A4270EB0C0B24DA891A5A686CEBEB
:1039C0000000C3E90410C4E9003214605C60FFF732
:1039D0006DFF84420ED1134B1B685BB9B9F1000F28
:1039E00002D1FFF76BFF0646304602F073FF00215D
:1039F000FEF708FF88F31188BFF36F8F284639461A
:103A0000BDE8F88F521A60EB0C005345C4E904205E
:103A1000ADD01B68AAE700252F46EFE7B8010020CC
:103A2000C0000020300300202DE9F047DFF8A4900B
:103A3000DFF8A480C9F800000246FFF737FF0D4603
:103A400000260027D8E900134FEAE27E50B1D0E902
:103A5000044CA2427EEB0C0A19DAA41A6CEB0E0697
:103A6000C0E9044652184FF0000443EB0E03204611
:103A7000C8E90023C9F8004002F02CFF2146FEF7F8
:103A8000C1FE85F31188BFF36F8FBDE8F087611821
:103A900043EBE473C0E90467C8E90013FFF718FFBC
:103AA00001224FF00043C0E9042385F31188BFF3DE
:103AB0006F8F83689847EFF31185202383F3128873
:103AC000BFF36F8FD9F80020121BC9F80020FFF751
:103AD000EDFEB7E730030020B801002010B5EFF38A
:103AE0001184202383F31288BFF36F8FFFF7E6FE64
:103AF000054A0346D2E90001181841EBE37184F34B
:103B00001188BFF36F8F10BDB8010020F8B50646CD
:103B1000EFF31187202383F31288BFF36F8FD0E96F
:103B20000423B3F1004F08BF012A04D087F31188A2
:103B3000BFF36F8FF8BDD0E90A45621C45F1000361
:103B4000022A73F1000334D3013C45F1FF35002D07
:103B5000BCBF0024254602F009FF013041F10001FD
:103B6000001945EB0101012871F1000135DB02F07C
:103B7000FDFE013041F100016FF00203001945EB39
:103B8000010183426FF000438B412BDB02F0EEFE1C
:103B9000013041F100016FF00102001945EB010312
:103BA000121A4FF0FF3161EB030310493046FFF763
:103BB000ABFE336B01333363336A002BB6D087F32C
:103BC0001188BFF36F8F30469847EFF3118720239A
:103BD00083F31288BFF36F8FA8E76FF001024FF0F5
:103BE000FF33E2E700224FF00043DEE70D3B000029
:103BF0002DE9F04105461C4690461F46EFF311861D
:103C0000202383F31288BFF36F8FB4F1FF3F08BF07
:103C1000B2F1FF3F05D186F31188BFF36F8FBDE886
:103C2000F081002C09DB012A74F10003BCBF0122E2
:103C3000002412F1FF3844F1FF37284602F061FEFC
:103C4000DDE906010023C5E90A012B6342463B4634
:103C500028460249FFF758FEDDE700BF0D3B000094
:103C6000054B1B68013143400132084022EA030240
:103C70000243501E00B27047480300202DE9F04F68
:103C800099B0CDE90210002118460192059303F086
:103C900036F8002800F0E8818F4B14934FF00109AB
:103CA00015AB05990198ADF83090ADF83890CDF886
:103CB0004090CDF84890139302F0AAFF01301ED136
:103CC000039B33B9029B9BB90023184619B0BDE88A
:103CD000F08F0398002102F01FFF0028F2D000248B
:103CE0000094A046A246274626466FF08C03D5E0F6
:103CF000DDE9011002F0D9FE0028F0D1E4E700254B
:103D000001990B950BA8ADF8325002F0CEFE0B9E38
:103D1000BDF832700446002840F09F810D90ADF848
:103D20003A0005990DA802F0C0FEDDF834A0BDF8F8
:103D30003A800546002840F09581019B0F90D98874
:103D4000ADF8389002310FA8ADF8309002F03DFE8A
:103D5000044618B10F9B00932C46C6E701460FA8F6
:103D600002F0DAFE0F9B00930028BED1019B119058
:103D7000D98811A8023102F028FE119C8346002840
:103D8000B3D10DA802F0F4FE00F01F001F2870D080
:103D9000C0F11F0319460BA8049302F011FF0B9EFC
:103DA000BDF832700028A0D104990DA802F008FFD8
:103DB000DDF834A0BDF83A80002896D1C1463D46D2
:103DC000A7EB080B4FEA4B1319460DA8CDF834A00A
:103DD000ADF83A80079302F0F3FEDDF834A0BDF8A9
:103DE0003A80002881D1009B03EB8B0B0DA90BA817
:103DF0000B96ADF83270CDF834A0ADF83A8002F0F1
:103E000036FF00283ADA09F1FF33079906930DA827
:103E100002F0F5FE09F1FF330AEB8303079309F182
:103E20008043023B0AEB830305F1FF3B05F180452C
:103E30000993013D009BA5EB090503EB8505069B56
:103E40009B454BD8039B73B10FA9184602F02DFE7A
:103E500000287FF44AAF019B059A9B88928813FB48
:103E600002F3039A9380029B002B40F0D980002339
:103E700014E0C1463D46CDF810B0A1E7DBF80030B4
:103E80000BA90133CBF800300DAA084603F027F840
:103E90000B9EBDF8327003460028A7D00BA80193F3
:103EA0000B96ADF8327002F082FD0DA8CDF834A06B
:103EB000ADF83A8002F07BFD009B0F930FA802F053
:103EC00076FD11A8119402F072FD0C2115A800F0E6
:103ED000A3FD019BF9E600BF01000300079B56F814
:103EE0002B101A684FEA8B09A9F10400331891428C
:103EF00008934BD200233058FCF702F9002914BF75
:103F00004FF0FF330346BBF1010F18BFB1442B60E4
:103F100014BF59F8083C00231593089B1B6816939F
:103F200006EB8B031B6817932B6801332B602B6800
:103F3000013B2B60002111A8119402F0EDFD119CB2
:103F400000287FF4D2AE069B1BB3099B1B6823603D
:103F5000079B1B68636011A92A68084602F0C3FF2B
:103F6000119C00287FF4C1AE13A911A802F07FFEB6
:103F70000028DCDC2A68CDF834A00DA911A8ADF822
:103F80003A8002F0B0FF30B1119CAEE64FF0FF3343
:103F9000B9E7069BDBE7009A6FF007034FEAC50914
:103FA00002FB0399494611A802F00AFE119C002861
:103FB0007FF49BAE0BA911AA08460B96ADF83270A0
:103FC00002F08DFF0B9EBDF83270034600287FF48F
:103FD00065AF01460BA802F092FE00281CDA0DA97D
:103FE00011A802F062FD0028CED1494611A802F0C6
:103FF000E7FD119C00287FF478AE0BA911AA0846B2
:1040000002F06AFF0B9EBDF83270034600287FF471
:1040100045AF2B68013B2B600BF1FF3B043D0EE7E6
:1040200004990B960BA8ADF8327002F0E8FD019BE5
:1040300002989B88ADF830300BA902F036FD01469E
:1040400000287FF452AE029802F059FE00287FF457
:104050000EAF029A0123938009E72C460095A846EB
:10406000AA4642E6009440E66FF00B032DE600BF3F
:10407000044B1B68584043085B4240421843C0173A
:10408000704700BF4803002010B50B4C226823681E
:104090004240594081EA0200C00FFFF7E9FF236860
:1040A000521A434022EA030208401043BDE8104080
:1040B000C00FFFF7DDBF00BF480300208842F0B506
:1040C00004D0094F04380025AA4200D1F0BD3E6853
:1040D00050F8044F5E4024EA060451F825601E4063
:1040E000344304600135EFE7480300202DE9F74F22
:1040F0000025DFF854B08046894692462C469D4202
:1041000003D1204603B0BDE8F08F59F82560019334
:1041100021463046FFF7B8FF361B5AF82510DBF86A
:104120000020009107463046FFF7AEFF0099DBF80C
:104130000020019B00F0010407F00107761A48F8FF
:1041400025603C440135DAE7480300208B422DE925
:10415000F84328BF0B46DE08089CA1EB030803F0D8
:104160000709844615460346B64600210EF1FF3E78
:10417000BEF1FF3F03F1200305F1200514D102EB4E
:1041800046104FEA89050CEB461600EB8907ACEBAD
:104190000202B84279D14A4C2E44B8F1000F40F0E7
:1041A00083800846BDE8F88355F8207CA7FB04709F
:1041B000CF1953F8201C40F10000CF1943F8207CA0
:1041C00055F81C1C40F10000A1FB0417401853F8DF
:1041D0001C1C47F10007091843F81C1C55F8181C53
:1041E00047F10007A1FB04107F1853F8181C40F199
:1041F0000000C91943F8181C55F8141C40F10000C0
:10420000A1FB0417401853F8141C47F100070918C4
:1042100043F8141C55F8101C47F10007A1FB0410CB
:104220007F1853F8101C40F10000C91943F8101C06
:1042300055F80C1C40F10000A1FB0417401853F87E
:104240000C1C47F10007091843F80C1C55F8081C12
:1042500047F10007A1FB04107F1853F8081C40F138
:104260000000C91943F8081C55F8041C40F100006F
:10427000A1FB0417401847F1000153F8047C3F18D4
:1042800041F1000143F8047C70E784465CF8043B8C
:10429000A3FB043ECB1881584EF1000ECB1883507F
:1042A0004EF10001604674E73068084446F8040B9C
:1042B000FFF7EAFE08F1FF38236800F001016CE720
:1042C000480300202DE9F04F8DB01D46189B179F25
:1042D0001A9E0592B3F12A3F83468A4640F08D80AC
:1042E0003946169802F05BFF012838BF01204709C4
:1042F00000F01F047B01502B34BF01230323012B4B
:104300000A930CBF022308230B930A9B059805FA16
:1043100003F306EB8303069303EB8503079303F094
:104320003BF84FEA8508089042460021304603F0EA
:10433000C5FE01233360079B0393089B199ACDE9BF
:104340000153059B009331462B46304606EB080986
:1043500003F036F851464246484603F088FE0223F1
:10436000494609930B9B099A934248D142463146EC
:10437000584603F07CFE4FF00009CA46079B0393A2
:10438000089BCDE90153059B00935A462B4659469D
:10439000584603F015F8002C47D1013F1F24169B07
:1043A00053F82730E34003F0010343EA49090A9B2D
:1043B0000AF1010A534503D0002CDFD1002FDDD1D3
:1043C000189BB3F12A3F32D10698424609FB086197
:1043D00003F04DFE079B0393089B069ACDE901531A
:1043E000059B009359462B46584602F0E9FF002CE6
:1043F000C1D1BFB90DB0BDE8F08F00247AE7079BAB
:104400000393089B01EB080ACDE90153059B009338
:104410004A462B46504602F0D3FF099B01330993CD
:1044200051469FE7A146A246A8E7013CB7E73146BF
:104430004FF0000A0A4B18681B68584080EA0900D0
:1044400080EA0A00FFF714FE2A46C3430698FFF7E6
:1044500035FE099B0AF1010A53454144EAD1B9E707
:104460004803002070B50021044603F077F80546A4
:1044700010B10E4D284670BD261D304602F078FB67
:104480007F28F6D90C342946204602F061FB00282B
:10449000EFD0204602F06CFB0128EAD931462046D5
:1044A00002F0E5FB0028E5DBE3E700BF00BEFFFF0D
:1044B0002DE9F04FCFB00446039100F1480346AD1B
:1044C00000F16806186859682A4603C20833B342E7
:1044D0001546F7D104AAD2E94483D2E94797D2E935
:1044E00042160193D2F824B13D4BD2F818510293F1
:1044F0004FF0000CBCF10F0F5AD8039B53F82C302F
:104500001BBA4FEAF52E87EA0900DDF808A0936090
:104510008EEAB51E28408EEA756E784070445AF8CF
:1045200004EBCDF808A0704403444FEA713E46EA1C
:10453000010006EA010A8EEAB10E00EA080040EA2C
:104540000A008EEAB15EDDF804A0CDF804800CF11B
:10455000010C5B448644BCF1400F9A4402F1040212
:104560007344BB461DD104A8C0E94897C0E946A5DD
:10457000C0E94468C0E94231C0E9003E45A904F100
:104580004403643453F8042F51F8045F9C422A44D6
:104590001A60F7D14FF4947100F03EFA4FB0BDE8C5
:1045A000F08FB0464F460E46A94619465546A1E73C
:1045B000136852F834AC52F8380C4FEAF34E8EEAD6
:1045C000734E8EEA932E52F8143C03444FEABA40DD
:1045D00080EAFA10734480EADA00034491E700BFEE
:1045E0004886000003460846C1B9C3E910110D4AC8
:1045F0000D49DFF838C0C3E912120D4A0D49C3E96D
:1046000014C20D4AC3E916120C4A1A6602F174521A
:10461000A2F52302A2F692425A6670476FF0860016
:10462000704700BF85AE67BB67E6096A72F36E3CF0
:104630003AF54FA57F520E518C68059BABD9831F6D
:10464000F0B506469BB00F4615461C464BBB684668
:1046500003F069F8144A154B15491648CDE91223A1
:10466000154BCDE91413154BCDE91603144B1893D4
:1046700003F17453A3F52303A3F692433A4631465C
:1046800068461993CDE9104403F056F82946684668
:1046900003F092F86821684600F0BEF920461BB08E
:1046A000F0BD6FF08604F9E767E6096A85AE67BB7F
:1046B00072F36E3C7F520E513AF54FA58C68059B04
:1046C000ABD9831F0928024818BF0020704700BFDC
:1046D000038C000001680E4A9142034615D1C1695E
:1046E000A2F11022A2F1EF1291420ED18268012AAA
:1046F0000BD8C26812B101698A4206D0586928B144
:104700009B691B1A5842584170470120704700BFEF
:1047100055AA00FF70B50E4B9E68B6B13046FFF744
:10472000D9FF044618B9F3687BB935690DB920463D
:1047300070BD2846FFF7CEFF28B9EB68B34204D11D
:104740002E462D69F2E70446F1E70124EFE700BFAA
:10475000340300202DE9F8433F4E3468D4B1B468E7
:10476000C4B1002875D0002973D001FB00F5B5FB5A
:10477000F0F088426DD1281D6BD8A9070DD025F027
:1047800003070437F46803E06368BB4207D2A469F7
:10479000002CF9D12046BDE8F8832F46F2E7A36844
:1047A0001BB12E4B01201B6898476268D21B232A3D
:1047B00004F120081FD80123A360D4E90523C2B166
:1047C0009361A3690BB162695A610023C4E905339F
:1047D0003369DA0706D5FFF79DFF18B11F4B1B6839
:1047E000012098472A4600214046444603F066FCD3
:1047F000D0E7F360E5E707F120016318203A5A603B
:104800000022C3E90224164822691A616050154942
:10481000D96102B1D36062695A61A1699961B2B18B
:1048200093619A6902B153614FF00109C4E90179BA
:1048300023610023C4E905333369DB07D2D5FFF7D1
:1048400069FF0028CED0054B48461B68C9E7F360D6
:10485000E7E700249EE700BF34030020C8000020E3
:1048600055AA00FF669911EE70B50546002800F0C4
:104870008480424E3368002B7FD0B268002A7CD0FF
:10488000834203D872681344984203D33C4B0120FF
:104890001B689847A5F120042046FFF71BFF18B1BD
:1048A000374B01201B68984755F8183C012B03D063
:1048B000334B01201B68984755F8143C002245F8FB
:1048C000182CC3B19968002942D155F81C2C02F16B
:1048D00020015A680A445A6055E905321A6155F8B0
:1048E000145C2B6903B1DD6020462022002103F017
:1048F000E5FB23462C462069002836D08268002A32
:1049000033D16368426820331344636003692361D1
:10491000D4E90523F2B923BB436963618269A261CB
:104920000BB39C61A36903B15C61236903B1DC60D3
:104930002022002103F0C2FB33699B071DD5FFF73E
:10494000E9FED0B10E4BBDE870401B68012018474E
:104950001346D0E79361A369002BDDD062695A61E9
:10496000DAE7F360F7E7F460DCE7002BE4D1F36803
:10497000A36103B15C61F460DEE770BD3403002025
:10498000C800002038B514220C4605460021134803
:1049900003F094FB1249134800F034F8232C1CD97F
:1049A00015F003031FBF043CE418C3F10403ED1822
:1049B00022460021284603F081FB084B0A499D60EE
:1049C000C3E90054203C6C609A6811609A68DA6010
:1049D000A1F11021A1F1EF11D16138BD3403002004
:1049E000694800005547000055AA00FF014B1B68AD
:1049F000184700BFD0000020014B1B68184700BFBC
:104A0000CC000020024B1860024B00201960704758
:104A1000D0000020CC00002010B50A46044619B191
:104A2000024B00211B68984710BD00BF488700005B
:104A3000F0B5114C059F24684440002B14BF9C46E0
:104A40008C46E443002303F1040E774502D2BB42B7
:104A500009D3F0BDD5585CF80360054026403543C6
:104A6000CD507346EFE7D55C1CF803600540264047
:104A70003543CD540133EAE748030020054B5A780B
:104A8000022A04D11878C31F5842584170470020A9
:104A9000704700BF4C03002000F6FF7240F67E73A3
:104AA0009A4277D9434213F07F031AD05842831DAC
:104AB0002EDA10F13D0F6BD010F13C0F52DA10F1ED
:104AC0005F0F47DA10F1680F41DB683040F2551391
:104AD000C34013F0010F0CBF6FF083006FF086002E
:104AE000704710F1850F30DA10F5834F4AD02EDC75
:104AF00010F5864F49D01FDC10F5994F22D010F5E4
:104B0000894F45D010F5A14F21D16FF08500704736
:104B1000831D062B1BD801A252F823F0454B000041
:104B20000B4B00004F4B00000B4B00004F4B0000A5
:104B30004F4B0000954B000010F5854F25D010F528
:104B4000844F04D16FF0860070470028AFDD6FF00E
:104B50008300704710F1400F14BF6FF083006FF0B7
:104B6000930070470E300728F1D80123834013F0DB
:104B7000150FE7D113F0A00F0CBF6FF083006FF09B
:104B8000930070476FF0920070476FF09600704787
:104B90006FF09300704700BF10B5104C2378580792
:104BA00044BF03F0FB032370990705D500F08CF890
:104BB000237823F002032370637813B1084803F0CD
:104BC0000BF8002306486370B021FFF725FF237818
:104BD000DA0744BF23F00103237010BD4C0300200B
:104BE0005003002038B5FFF749FF30BB164D2B7836
:104BF000DC075CBF43F001032B70980707D400F07B
:104C00005BF82B7843F002032B700446C0B96A7836
:104C10006AB9D9070BD50D4800F01AF801230B48E3
:104C20006B7000F02DF8044650B902236B702B789E
:104C30005A075CBF43F004032B700024204638BDA4
:104C4000FFF7AAFFFAE700BF4C0300205003002043
:104C500010B5036804460BB9074B036062680AB9D4
:104C6000064A626004F10800984704F16C00BDE850
:104C7000104003F0F3B800BFF94C0000E77C0000DF
:104C80001FB504460A4B03930920FFF71BFD0323BE
:104C9000019303AB0146074A009304F16C0004F151
:104CA000080303F09CF9FFF7F7FE04B010BD00BF46
:104CB00050534100337D0000024B012283F8402312
:104CC0000020704700240020F8B5094C002501277A
:104CD0000326E76126762046013502F05FFF102D9E
:104CE00004F50D74F5D1034B002283F84023F8BD81
:104CF000000400200024002037B504460025294682
:104D000005615022143003F0D9F92046E56002F025
:104D10009DFD01230093044920232A46204602F0EA
:104D2000F5FF03B030BD00BF377E0000F8B50E4B75
:104D30001D68AB789B07064612D56F6816F8014BC5
:104D400029462CB90A20B847002805DB204609E08F
:104D50002046B8470028F1DAAB7843F00403AB7083
:104D60004FF0FF30F8BD00BF2C8500002DE9F04F5B
:104D70008378D0F8048015469A0785B0074640F13D
:104D80009F8000260878002800F09C80252808D005
:104D900001F1010A01363946C047002880F28680B9
:104DA0008AE091F801B0BBF1250F01F1020AF1D0C0
:104DB000002401211F2C25D8ABF12002102A06D88F
:104DC000844B01FA02F018420ED1032A5AD0ABF1FB
:104DD0003002092A08D9BBF12A0F33D1630605F145
:104DE000040501D444F020041AF801BBBBF1000F04
:104DF000E0D139462520C04700285DDB0236394620
:104E00005846C9E77F2CE2D9BBF16C0F29D021D8D5
:104E1000BBF1680F2CD0BBF16A0F30D0BBF14C0F47
:104E20002DD0ABF16302122A00F2A580DFE802F078
:104E30002C4EA3A3A3A34EA3A3A3A3A3AD9DA3A35F
:104E400031A37700BBF12E0FDED160063AD444F0D7
:104E50004004C9E7BBF1740FC6D0BBF17A0FC3D0D1
:104E6000DFE7220648BF44F4007444F08004BBE747
:104E7000E30548BF44F4007444F48074B4E744F498
:104E80002074B1E71024AFE715F8040B013639465A
:104E900082E72C68504B002C08BF1C46A1464B46AD
:104EA00019F8010B20B9341B1E190435514669E766
:104EB0003946C0470028F2DABB7843F00403BB70E0
:104EC0004FF0FF36304605B0BDE8F08F20061DD507
:104ED000A10545BF073525F0070555F8040B55F822
:104EE000080B00280DF10409B8BF404249464FF0B5
:104EF0000A02B8BF44F4806403F0FFF86405A0EB35
:104F0000090956D44C460DF1040B5EE0E20555F854
:104F1000040BE6D5A3054CBF40B200B2E1E724F094
:104F20001004A4B20A22200633D5A10545BF0735D7
:104F300025F0070555F8040B55F8080B10B924F0B7
:104F40001004A4B20DF10409494603F0D6F8E306B3
:104F5000A0EB0909D6D539463020C0470028ABDB85
:104F6000BBF1000F1ED10136CCE744F01004102233
:104F70004FF0780BD7E74BF02002782A7FF439AF57
:104F8000CBF1780242F01002CDE708224FF0000B7F
:104F9000C9E7E30555F8040BD0D5A1054CBFC0B255
:104FA00080B2CBE7023639465846C0470028A9DA16
:104FB00082E7013639462D20F7E7013C39461BF8D8
:104FC0000400C0470028FFF677AF002CF5D14E440F
:104FD0006CE700BF81280100CC8A000038B5044C82
:104FE000044DAC4200D138BD54F8043D9847F8E771
:104FF000000000000000000070470020704730B53E
:10500000002985B00446154611DB83688B420ED912
:105010006368C068194401AA00F017FC28B96268E7
:10502000019B9B1A2B60029B6B6005B030BD6FF03B
:105030002100FAE77047002070470FB407B504A9B4
:1050400051F8040B0191FBF77DFA03B05DF804EB16
:1050500004B07047038B13F0070306D10368002BDD
:1050600018BF032008BF00207047022B05D1408BDA
:10507000B0FA80F0400980007047012B04D103682A
:10508000002B18BF0520EDE70020704710B50C4637
:1050900000B111B96FF0150010BD081D00F087F8C0
:1050A0000028F9D1A368032BF6D9F3E72DE9F041E5
:1050B0000D4607461946281D90461E4600F088F802
:1050C000044638B13346424629463846A446BDE830
:1050D000F0416047BDE8F08110B4EFF31182202465
:1050E00084F31288BFF36F8F416110BC0121FBF77D
:1050F00041BA38B50C46054658B151B10B6843B1B9
:105100004B6833B11C22002102F0D8FF2C61002033
:1051100038BD6FF01500FBE7F8B504460E46FFF703
:10512000B5FF051E3BDBEFF31182202383F31288CA
:10513000BFF36F8F638B278B4FF6FF718B4207F0A6
:1051400007072ED0062F2FD8DFE807F0182E082EDD
:10515000180418006FF08505002303E00133638312
:105160000225012382F31188BFF36F8FBBB10023A7
:105170003A4631462046FFF799FF10E0002333609E
:10518000636823B9C4E9006627B13D46E4E71E60C1
:105190006660F9E702212046FBF7ECF93D46284618
:1051A000F8BD6FF00A05D7E76FF00405D4E70346B2
:1051B00058B1426802F00302012A03D0032A04D145
:1051C000026812B10020986070476FF015007047B8
:1051D0004268816002F00302032A4FF00002034696
:1051E0000CBF006810465A60704770470FB407B58F
:1051F00004A951F8040B0191FBF7A4F903B05DF881
:1052000004EB04B07047002908DB8068884205D9A8
:10521000401A904234BF00200120704700207047A0
:10522000704770B516461A4605460C46FFF7EBFF69
:1052300048B16968E8682144826814683246A44627
:10524000BDE8704060476FF0150070BD70B5164640
:105250001A4605460C46FFF7D6FF48B16968E8686C
:105260002144826854683246A446BDE870406047D5
:105270006FF0150070BD10B50B460446FFF7C3FF75
:1052800040B16168E068194483689B682BB1BDE850
:10529000104018476FF0150010BD6FF05700FBE786
:1052A00008B5C0688368DB689847006808BD08B522
:1052B000C0688368DB689847407908BD2DE9F047EE
:1052C0009AB0DDE9245768460C46229E92469946DC
:1052D00002F029FA00216846FFF784F935B1002F62
:1052E00004DD3A462946684602F026FA6389228997
:1052F000D4F80C80134498440025A84508D8239975
:10530000684602F059FA684602F011FA00240FE0EC
:10531000A8EB0507B74228BF37463B464A46294611
:105320005046FFF77EFF044630B1684602F0FFF9B1
:1053300020461AB0BDE8F0873A464946684602F072
:10534000FBF93D44D9E72DE9F7430E461746994648
:10535000044628B94FF0FF38404603B0BDE8F0835B
:105360000029F7D0002AF5D0CB680D891D4404230D
:105370000DEB030229463846FFF753FF804600280D
:10538000E8D1BDF80410738946F60812914225D180
:10539000BDF806109942DDD104230DEB0302294428
:1053A0003846FFF73EFF0028D4D1BDF8042046F66A
:1053B00007139A42CED1C4E900679DF82830A4F8BB
:1053C0000890A3727389BDF806202B44E3607389AB
:1053D00013442B44043563612561BDE7002BE4D001
:1053E000B8E72DE9F3410E4617461D46044620B99D
:1053F0004FF0FF3002B0BDE8F0810368002BF7D01A
:105400004368002BF4D04FF6FF78D4E90413994297
:1054100015D223685B8923B1E3688B4204BF043152
:105420002161042360680DEB0302FFF7FAFE0028F8
:10543000DED1A37A2BB1D4E903329A4201D3012001
:10544000D8E72389BDF80610434501F1040203D0D3
:10545000BDF804C09C450BD115B1BDF804302B80BC
:105460002369043333603980236913442361C1E71E
:10547000236913442361C8E748B103683BB143681B
:105480002BB1C068884294BF0020012070474FF0C4
:10549000FF30704702F021BE084601F05CB970474A
:1054A0002DE9F7431F4683688B4206460D46914619
:1054B00033D95B1A934230D307B36A46FFF79FFD97
:1054C000041E2CDB013DDDF800804D446A46294670
:1054D0003046FFF794FD041E21DBDDE900953046E0
:1054E0002A464946FFF7C7FE041E18DBFBF70CF8F7
:1054F00077B1C84513D209F1FF35E7E701396A46AC
:105500004944FFF77CFD041E09DBDDF80080DDE780
:105510004D44A84503D30135D8E74FF0FF3420466A
:1055200003B0BDE8F08310B412B110BCFFF7B8BFF0
:10553000104610BC7047002382681946FFF7F3BF7E
:1055400008B52C2303FB0101086A08B900F0C8F86C
:10555000BDE80840042201F004B9F8B513460F462F
:10556000164600210246054600F055F8044650B99B
:10557000334605F12C020121284600F04CF810B109
:10558000002F18BF04462046F8BD02780B789A42D7
:1055900014D810D342784B789A420FD80BD3428854
:1055A0004B889A420AD806D342684B689A4205D87B
:1055B00060EB000070474FF0FF30704701207047EC
:1055C00000207047002110B504460846FAF782FF14
:1055D00004F12001C0B2FBF7C7F840B90121FAF786
:1055E00079FF04F14C01C0B2FBF7BEF808B100F03E
:1055F00077F810BD10B50446C06C08B1FFF710FE77
:10560000206A18B1BDE81040FFF70ABE10BD6C2239
:10561000002102F053BD08B52C2303FB0100006AF2
:1056200008B900F05DF820230021FFF7FAFD0038EB
:1056300018BF012008BD02F041BD02F018BD0128CD
:1056400001D1EFF3058301F030B901460068FFF79F
:10565000F6BF08B5FBF7B6FCBDE8084000F02FB870
:1056600000210120FFF7EBBF61B662B680F311881D
:10567000BFF36F8F7047EFF31180202383F31288FD
:10568000BFF36F8F704772B6002383F31188BFF3A7
:105690006F8FBFF34F8F30BF62B6BFF36F8F70470E
:1056A00072B6002383F31188BFF36F8FBFF34F8F60
:1056B00020BF80F31188BFF36F8F62B670477047C9
:1056C000202809D9B0F1004F08D80138B0FA80F08D
:1056D000C0F11F0040007047082070473E2070470F
:1056E00008B5FCF721F808B5FCF716F8002008BD4E
:1056F00070470369C9B20C2202FB0133186C00F039
:105700000700704770B50346C9B20069EFF3118610
:10571000202484F31288BFF36F8F0C2505FB01044E
:10572000246C14F0C00401D0A24211D105FB010089
:1057300001220264002086F31188BFF36F8F30B915
:105740005B680C2202FB01335B689847002070BD48
:105750004FF0FF30EFE78022FFF7D4BFF8B5069F88
:1057600004690546C9B2EFF3118C202080F312883A
:10577000BFF36F8F0C2606FB0146306C00F0070E5E
:10578000BEF1010F10D1376400268CF31188BFF3EE
:105790006F8F3EB90C2041430C44C4E90E236B6863
:1057A0005B5898473046F8BD00F0C00087420CBFF8
:1057B0006FF077064FF0FF36E7E713B580240094CB
:1057C000FFF7CCFF02B010BD6FF08500704710B43A
:1057D0000069CBB21C2404FB0300002110BC10475D
:1057E00000F0CDBCFDF700BAF7B51C461646002305
:1057F00082682360A36053690D4601AA69469847F1
:10580000019B5A1E01921BB96FF0150003B0F0BD49
:105810000098A26847682168676085B9B31AD0F814
:1058200000C0634528BF63461A4403FB071121608B
:10583000A26002689A4206D808300090E0E76B1A2E
:10584000B3FBF7F3EBE70020E0E713460022FFF796
:10585000CBBF08B901230B7070474FF480120023AF
:10586000C1E900230020704737B50D4638B34168C1
:10587000F9B1D1E900138468ECB1D4E90024DCB1BA
:10588000D3B19C421BD10133092B18D800788DF875
:10589000013040F201138DF80000ADF80230684687
:1058A00000238DF804308DF80550FDF719FE03B084
:1058B00030BD0B46DFE7224601332344E4E76FF0B7
:1058C0001500F4E77FB5FF2202288DF803200DF1C3
:1058D00003020CBF35230523002101920122CDE9EB
:1058E000022103A88DF80C3001AB04910593FFF75A
:1058F000BBFF0028A8BF9DF8030007B05DF804FBBC
:105900001FB5002188420CBF0623042301A8CDE95E
:10591000011103918DF80430FFF7A6FF002818BF8E
:105920006FF0040005B05DF804FB38B5044679B9A2
:10593000EFF31180202383F31288BFF36F8F1D468E
:10594000237833B10023237080F31188BFF36F8F66
:1059500038BDFFF7A5FEEFF3118085F31288BFF382
:105960006F8FEDE743680BB9FDF71ABE70472DE95D
:10597000F04F824685B088461C461746002A7CD0E8
:10598000002B74D0002978DB4268D26ACB1893428E
:1059900073D84D4205F00305A54228BF25467B423A
:1059A00003F0030307F0030658BF5E42764206F099
:1059B0000306A64228BF2646631BA41B24F003044B
:1059C00023F00309A145C8BFA14603F0030BC8BFDC
:1059D000A3EB040BB9F1000F15D0BB194A191846F7
:1059E0004946019300F09DFE04460146DAF8100096
:1059F000FFF79BFFBCBBB54205D0019B4A46194649
:105A0000781902F042FBADB102ABC5F104060421E6
:105A1000A8EB0602184600F084FE04460146DAF8B8
:105A20001000FFF782FFF4B902AB2A4699193846F5
:105A300002F01DFBBBF1000F1DD0082108EB050291
:105A40000DEB01004A4400F06CFE04460146DAF812
:105A50001000FFF76AFF34B909EB05005A4602A9A6
:105A6000384402F004FBDAF81000FFF77BFF204611
:105A700005B0BDE8F08F5C46F5E76FF01504F6E77A
:105A80002DE9F7430E46074641681D469046002A19
:105A900068D0002B66D0042B01D9AB0762D116F079
:105AA00003005FD1002E5DDBCA6A7319934259D897
:105AB000FFF726FF002852D1032D1CD804210DEB3F
:105AC0000100324600F02DFE044601463869FFF71A
:105AD0002CFF94BB2A46414601A802F0C8FA0421D3
